:100000000C943A010C9459010C9459010C94590127
:100010000C9459010C9459010C9459010C945901F8
:100020000C9459010C9459010C9459010C945901E8
:100030000C9459010C9459010C9459010C945901D8
:100040000C9459010C94400D0C9459010C945901D5
:100050000C9459010C9459010C9459010C945901B8
:100060000C9459010C9459010C9459010C945901A8
:100070000C9459010C9459010C9459010C94590198
:100080000C94940D0C9459010C9459010C94590141
:100090000C9459010C945901000000000000005F0D
:1000A00000000003000300143E143E14242A7F2A9B
:1000B000124333086661364955225000050300009B
:1000C000001C2241000041221C0014083E081408B4
:1000D000083E0808005030000008080808080060C2
:1000E00060000020100804023E5149453E00040211
:1000F0007F00426151494622414949361814127F16
:100100001027454545393E494949320101710907E2
:100110003649494936264949493E003636000000ED
:10012000563600000814224100141414141400411F
:1001300022140802015109063E4159555E7E090903
:10014000097E7F494949363E414141227F41414133
:100150003E7F494949417F090909013E4141493AE8
:100160007F0808087F00417F4100304040403F7FCA
:10017000081422417F404040407F020C027F7F02F2
:1001800004087F3E4141413E7F090909061E2121A5
:10019000215E7F09090976264949493201017F011B
:1001A000013F4040403F1F2040201F7F2010207F04
:1001B00041221C224107087008076151494543004C
:1001C0007F41000002040810200000417F0004026B
:1001D0000102044040404040000102040020545409
:1001E00054787F4444443838444444443844444474
:1001F0007F385454541804047E0505085454543C64
:100200007F0804047800447D40002040443D007F86
:100210001028440000417F40007C047804787C086A
:1002200004047838444444387C1414140808141422
:10023000147C007C080404485454542004043F44B3
:10024000443C4040207C1C2040201C3C4030403C32
:1002500044281028440C5050503C4464544C4400F2
:100260000836414100007F0000414136080002018C
:100270000204020011241FBECFEFD0E2DEBFCDBFCB
:1002800012E0A0E0B1E0EEE2FAE200E00BBF02C053
:1002900007900D92AA39B107D9F724E0AAE9B2E094
:1002A00001C01D92A03AB207E1F70E944C0F0C94D6
:1002B00015150C94000020E030E080E090E0A901EA
:1002C000440F551F440F551F40555D4FFA01E80F6D
:1002D000F91F608161110CC0019684309105B1F75E
:1002E0002F5F3F4F2430310541F78FEF9FEF089587
:1002F000C901089523E030E083E090E0A901440FB4
:10030000551F440F551F40555D4FFA01E80FF91F67
:100310006081611108C00197C0F72150310960F771
:100320008FEF9FEF0895C901089523E030E083E047
:1003300090E0FC01EE0FFF1FEE0FFF1FE055FD4F99
:10034000E20FF31F4081411108C0019790F721503F
:10035000310968F78FEF9FEF0895C901089520E0F4
:1003600030E080E090E0A901440F551F440F551F75
:1003700040545D4FFA01E80FF91F608161110CC014
:10038000019684309105B1F72F5F3F4F243031053E
:1003900041F78FEF9FEF0895C901089523E030E002
:1003A00083E090E0A901440F551F440F551F4054AE
:1003B0005D4FFA01E80FF91F6081611108C00197D4
:1003C000C0F72150310960F78FEF9FEF0895C90101
:1003D000089523E030E083E090E0FC01EE0FFF1F82
:1003E000EE0FFF1FE054FD4FE20FF31F408141115C
:1003F00008C0019790F72150310968F78FEF9FEF00
:100400000895C9010895EF92FF920F931F93CF9320
:10041000DF93E12CF12CC8E1D1E0AE0160EA70E09D
:1004200089E092E00E940E0800E010E0F801EE0F73
:10043000FF1FEE0FFF1FE055FD4FEE0DFF1D8081EA
:10044000882319F082E591E002C084E591E00E94E2
:10045000FB070F5F1F4F0430110541F72A968FEFFE
:10046000E81AF80AC03481E0D807B9F6DF91CF91D5
:100470001F910F91FF90EF9008950F931F93CF93CB
:10048000DF93CDB7DEB728970FB6F894DEBF0FBE67
:10049000CDBF8A01FC0131962E2FFA83E9830E9697
:1004A000482F9C838B83CB010196E82F9E838D83FD
:1004B0000D9698878F833A815C816E2F7E81988517
:1004C0000E944F0528960FB6F894DEBF0FBECDBF31
:1004D000DF91CF911F910F91089520E030E0F90155
:1004E000EE0FFF1FEE0FFF1FE054FD4F1082118231
:1004F000128213822F5F3F4F2430310581F78F39ED
:1005000029E9920709F455C068F4803E27E0920774
:1005100009F4D8C08F3F27E0920791F04F9709F078
:100520002DC174C080322DEF920709F49AC0803E2D
:100530002FEF9207C1F18115984F09F01FC1EDC04F
:1005400061307105E1F028F16230710571F06330BE
:10055000710509F013C181E08093C8028093C9023C
:100560008093CA028093CB02089581E08093C102F8
:100570008093C5028093C9028093CD02089581E0E3
:100580008093C4028093C5028093C6028093C70201
:10059000089581E08093C2028093C6028093CA02CC
:1005A0008093CE02089581E08093C0028093C102BF
:1005B000ABC061307105D1F008F16230710571F0A6
:1005C0006330710509F0DAC081E08093C402809342
:1005D000C5028093C6028093C902089581E080938A
:1005E000C1028093C5028093C902C6C081E0809396
:1005F000C4028093C5028093C60276C081E08093D6
:10060000C1028093C5028093C902ACC061307105FC
:10061000C1F0F8F06230710561F06330710509F0E6
:10062000ADC081E08093C4028093C5028093C6026E
:1006300046C081E08093C1028093C5028093C902C5
:1006400022C081E08093C4028093C5028093C602D9
:1006500075C081E08093C1028093C5028093C90276
:1006600024C061307105D1F018F16230710571F06C
:100670006330710509F082C081E08093C4028093E9
:10068000C5028093C6028093C002089581E08093E2
:10069000C1028093C5028093C90250C081E080935B
:1006A000C4028093C5028093C6028093CA02089553
:1006B00081E08093C1028093C5028093C902809338
:1006C000C802089561307105D1F008F162307105FA
:1006D00071F06330710509F051C081E08093C5026B
:1006E0008093C6028093C0028093C102089581E086
:1006F0008093C5028093C9028093C20233C081E017
:100700008093C9028093CA028093C40221C081E011
:100710008093C4028093C80219C061307105D9F07A
:1007200020F16230710569F06330710539F581E0BF
:100730008093C4028093C5028093C1028093C20259
:10074000089581E08093C6028093CA028093C1021B
:100750008093C502089581E08093C8028093C90206
:100760008093C5028093C602089581E08093C502FC
:100770008093C9028093C0028093C402089580E0F0
:1007800090E0FC01EE0FFF1FEE0FFF1FDF01A054F2
:10079000BD4F2C91E055FD4F208311962C91119760
:1007A000218312962C911297228313962C912383E6
:1007B00001968430910529F708956F927F928F9268
:1007C0009F92AF92BF92CF92DF92EF92FF920F93E0
:1007D0001F93CF93DF933B01D42FC52FB9010E9404
:1007E0006D020E94BF03ED2EFC2EC12CD12CC62D14
:1007F000D72D812C912CC601880F991F880F991F26
:100800009C0120553D4F5901F501E80DF91D8081EE
:10081000882329F0A801BE01C7010E943D022FEFE5
:10082000821A920A2F9634E08316910469F78FEFAB
:10083000C81AD80A2FE0E20EF11C34E0C316D10426
:10084000B1F6DF91CF911F910F91FF90EF90DF9064
:10085000CF90BF90AF909F908F907F906F900895B2
:100860000F931F93CF93DF93CDB7DEB728970FB6C3
:10087000F894DEBF0FBECDBF29833A834B835C83E0
:100880006D837E838F83988789819A81EF81F88534
:100890006B817C813FE0369FA001379F500D112472
:1008A000AD81BE813A9FB0013B9F700D11248C0138
:1008B0009F010E94DD0328960FB6F894DEBF0FBE9D
:1008C000CDBFDF91CF911F910F9108950F931F938B
:1008D000CF93DF93CDB7DEB728970FB6F894DEBF7E
:1008E0000FBECDBF29833A834B835C836D837E83A8
:1008F0008F8398872F8138856B817C818FE0869FDD
:10090000A001879F500D1124ED81FE818E9FB001C3
:100910008F9F700D112400E010E089819A810E9460
:10092000DD0328960FB6F894DEBF0FBECDBFDF9172
:10093000CF911F910F91089593E89093B00091E0AB
:100940009093B1008093B30008959093D502809363
:10095000D40226E330E020930040009779F480EF42
:1009600090E09093D1028093D00280E491E0909344
:10097000D3028093D20288E490E034C081309105A4
:1009800079F480E491E09093D1028093D00280EFDB
:1009900090E09093D3028093D20288EE90E022C040
:1009A0008230910579F480EF90E09093D1028093AA
:1009B000D00280E491E09093D3028093D20288E841
:1009C00090E010C0039781F480E491E09093D1020D
:1009D0008093D00280EF90E09093D3028093D20274
:1009E00088E290E0809300418AE290E080930040AA
:1009F00020E030E030930041209300418091D0020C
:100A00009091D102019790930041809300418BE235
:100A100090E080930040309300412093004180910A
:100A2000D2029091D30201979093004180930041AC
:100A30000895CF93873748F4883048F08D3350F4C9
:100A40008F3150F4803150F403C086E703C088E052
:100A5000C3E005C0C0E003C0C1E001C0C2E021EBBB
:100A600030E020930040C0930041682F70E080E0A8
:100A700090E00E94E3109B01AC0160E070E080EF29
:100A800094E40E9440100E94B21070E002C075957C
:100A90006795CA95E2F760930041CF9108950F934F
:100AA0001F93CF93DF93CDB7DEB728970FB6F89497
:100AB000DEBF0FBECDBF29833A834B835C836D833A
:100AC0007E838F83988769817A812B813C814D81D8
:100AD0005E818F819885EAE2F0E0E09300407093B8
:100AE0000041609300413093004120930041EBE2CC
:100AF000F0E0E09300405093004140930041909318
:100B0000004180930041ECE2F0E0E09300402F5F71
:100B10003F4F261B370B0196841B950B281739076F
:100B200090F4482F4770429FB001439F700D1124ED
:100B300053E0969587955A95E1F7829FA001839F90
:100B4000500D112411C0422F4770489FB001499F9A
:100B5000700D112443E0369527954A95E1F7289FBB
:100B6000A001299F500D1124862F8770815028F0F5
:100B70001093004100930041F9CFCB0123E09695FB
:100B800087952A95E1F7840F951F019708F1109337
:100B900000410093004110930041009300411093E5
:100BA00000410093004110930041009300411093D5
:100BB00000410093004110930041009300411093C5
:100BC0000041009300411093004100930041DDCFAC
:100BD00028960FB6F894DEBF0FBECDBFDF91CF9140
:100BE0001F910F910895EF92FF920F931F93CF9350
:100BF000DF93CDB7DEB728970FB6F894DEBF0FBEF0
:100C0000CDBF29833A834B835C836D837E838F833F
:100C1000988789819A81EB80FC806D817E81AF818C
:100C2000B8852AE230E02093004090930041809301
:100C30000041F0920041E09200412BE230E020932D
:100C400000407093004160930041B0930041A09335
:100C500000412CE230E020930040E816F906A0F0B5
:100C6000A8019B018A01A217B30760F04E5F5F4F96
:100C7000F8010081118110930041009300412F5F22
:100C80003F4FF0CF0196E9CF28960FB6F894DEBF1C
:100C90000FBECDBFDF91CF911F910F91FF90EF90CD
:100CA00008950F931F93CF93DF93CDB7DEB72897A7
:100CB0000FB6F894DEBF0FBECDBFE0EDF2E01782B5
:100CC0001682118610861A8219828081918101977D
:100CD000482F9C838B831E821D8282819381019782
:100CE00098878F830485158520E03A815C8160E0D8
:100CF0007E8198850E944F0528960FB6F894DEBF36
:100D00000FBECDBFDF91CF911F910F91089586E067
:100D10008093750080E8809374003F9A249A8FEC4A
:100D200097E00197F1F700C0000047988FE39CE936
:100D30000197F1F700C00000479A9FEF2DEE82E087
:100D4000915020408040E1F700C0000088E290E030
:100D50008093004081E190E0809300409FEF26E780
:100D600081E0915020408040E1F700C0000021E088
:100D700030E08BEC90E0809300402093004180ECC9
:100D800090E08093004088E096E290930041809349
:100D9000004120E130E081EC90E08093004020931E
:100DA000004185EC90E0809300408EE395E39093C2
:100DB00000418093004125EB30E087EC90E0809388
:100DC00000402093004121E030E086EF90E08093E6
:100DD00000402093004180E090E090930041809398
:100DE000004125E530E08AE390E0809300402093C5
:100DF000004181E090E00E94A5040E945106E0EDD0
:100E0000F2E01782168211861086158614868FEFFF
:100E10009FEF9387828789E290E0809300409FE76D
:100E200028E381E0915020408040E1F700C00000BD
:100E300020E030E085E390E0809300402093004183
:100E4000EAE6F0E08081806280832C9A08959F9288
:100E5000AF92BF92CF92DF92EF92FF920F931F93C8
:100E6000CF93DF932091D8023091D9028A30F9F4E0
:100E70001092D7021092D602285F3F4F3093D902CA
:100E80002093D8028091D2029091D302281739077B
:100E900008F4A5C0DF91CF911F910F91FF90EF90C3
:100EA000DF90CF90BF90AF909F900C94510690EE42
:100EB000980F9F3508F093C06091D6027091D702C9
:100EC000A901495F5F4F082E000C990B8097E5E060
:100ED000E89FE001E99FD00D11248BE290E0809320
:100EE00000403093004120930041509300414093D3
:100EF0000041CB01DB0114960AE210E0ECE2EE2E99
:100F0000F12CA817B90780F100930040909300419D
:100F1000809300419093004180930041E092004013
:100F2000FC01E61BF70BEC0FFD1FE856FF4F9490FA
:100F30006901F1E04C155D05A8F0BF2EB92029F03C
:100F4000A090DA02B090DB0204C0A090DC02B09066
:100F5000DD02B0920041A0920041EFEFCE1ADE0A0E
:100F6000FF0FE8CF0196CDCF6AE270E060930040BA
:100F70009093004180930041909300418093004101
:100F80008CE290E0809300404217530758F0809124
:100F9000DC029091DD0290930041809300412F5F2D
:100FA0003F4FF2CF8091D6029091D7020696909350
:100FB000D7028093D6022091D0023091D1028217BD
:100FC000930768F01092D7021092D6028091D8024F
:100FD0009091D90208969093D9028093D802DF911C
:100FE000CF911F910F91FF90EF90DF90CF90BF9026
:100FF000AF909F9008950F931F93CF938C01C0E003
:10100000F801EC0FF11D8081882321F00E94270751
:10101000CF5FF6CFCF911F910F9108950F931F933C
:10102000CF938C017093D7026093D6025093D9026C
:101030004093D802C0E0F801EC0FF11D80818823B5
:1010400021F00E942707CF5FF6CFCF911F910F911C
:101050000895EF92FF920F931F93CF93DF93C0E019
:10106000D0E090E8E92EF12C082F10E0C7010C2EFB
:1010700002C0959587950A94E2F780239123892BE6
:1010800011F081E301C08EE20E9427072196C8304B
:10109000D10561F7DF91CF911F910F91FF90EF90F4
:1010A0000895F8942091820430918304409184043F
:1010B0005091850460918604709187048091880422
:1010C000909189040E9466042091980430919904BB
:1010D00040919A0450919B0460919C0470919D04EE
:1010E00080919E0490919F040E943004789408950A
:1010F000DF92EF92FF920F931F93CF93DF93E12C38
:10110000F12CCCE3D0E095E1D92EAE0160EA70E09D
:1011100089E092E00E940E0800E010E0D09EF0010D
:10112000D19EF00D1124EE0DFF1DEE0FFF1FE252B8
:10113000FD4F80819181892B19F082E591E002C0F9
:1011400084E591E00E94FB070F5F1F4F0A301105F5
:1011500029F72A968FEFE81AF80ACE3081E0D807EF
:10116000A1F6DF91CF911F910F91FF90EF90DF904B
:1011700008950F931F93CF93DF93CDB7DEB72897D2
:101180000FB6F894DEBF0FBECDBF88E0EAE4F1E011
:10119000DE01119601900D928A95E1F700E010E0D2
:1011A00029813A814B815C816D817E818F81988517
:1011B0000E944F0528960FB6F894DEBF0FBECDBF34
:1011C000DF91CF911F910F91089580E090E065E14C
:1011D00020E030E0689FA001699F500D1124FA01C2
:1011E000E20FF31FEE0FFF1FE252FD4F118210823C
:1011F0002F5F3F4F2531310591F701968A309105D8
:1012000039F708957F928F929F92AF92BF92CF92BB
:10121000DF92EF92FF920F931F93CF93DF93CDB79F
:10122000DEB72F970FB6F894DEBF0FBECDBF0E947A
:10123000B90880919E0290919F029F938F9386E5BB
:1012400091E09F938F938E010F5F1F4F1F930F931A
:101250000E94C91144E150E060EA70E0C8010E94B8
:101260000E0880919C0290919D029F938F9380E63F
:1012700091E09F938F931F930F930E94C9114EE1AA
:1012800050E060EA70E0C8010E940E0880919A0266
:1012900090919B029F938F938AE691E09F938F9307
:1012A0001F930F930E94C91148E250E060EA70E07A
:1012B000C8010E940E080FB6F894DEBF0FBECDBF66
:1012C000A12CB12C00E010E095E1792EC12CD12C9D
:1012D000E12CF12C709E4001719E900C1124F401C0
:1012E000EE0DFF1DEE0FFF1FE252FD4F8081918139
:1012F000892B31F040815181B601C5010E943D0228
:101300009FEFE91AF90A8FE0C80ED11C95E1E916A2
:10131000F10429F70F5F1F4F8FE0A80EB11C0A30B0
:101320001105A1F62F960FB6F894DEBF0FBECDBF04
:10133000DF91CF911F910F91FF90EF90DF90CF90B1
:10134000BF90AF909F908F907F90089520E030E005
:1013500045E1429FF001439FF00D1124E80FF91F72
:10136000EE0FFF1FE252FD4F60817181672B41F04C
:101370002F5F3F4F2A30310561F781E090E00895FB
:1013800080E090E00895CF92DF92FF920F931F9339
:10139000CF93DF93C0E0D0E0C12CD12C00E010E06F
:1013A00095E1F92EC8010E94A609892B51F12196D9
:1013B00020E030E0C801F29EB001F39E700D1124D0
:1013C000AC01415051090097A1F0FB01E40FF51F5A
:1013D000EE0FFF1FE252FD4FA081B181FB01E80F2C
:1013E000F91FEE0FFF1FE252FD4FB183A083CA0128
:1013F000E7CF2F5F3F4F2A303105E1F6CC24C3946D
:10140000D12C0F5F1F4F0531110561F680919E02AF
:1014100090919F028C0F9D1F90939F0280939E023C
:1014200080919E0290919F026AE070E00E941810E5
:1014300070939D0260939C0220919C0230919D02CA
:1014400080919A0290919B02FE01EE0FFF1FE85CD3
:10145000FE4F2F5F3F4F60817181269FA001279F24
:10146000500D369F500D1124840F951F90939B02B1
:1014700080939A02CD2BB9F080919C0290919D02AD
:101480001816190684F480919C0290919D024F9742
:1014900054F48091980090919900845F91409093CA
:1014A000990080939800CD2849F0DF91CF911F914A
:1014B0000F91FF90DF90CF900C940209DF91CF91B4
:1014C0001F910F91FF90DF90CF900895BF92CF9220
:1014D000DF92EF92FF920F931F93CF93DF93CDB7DD
:1014E000DEB728970FB6F894DEBF0FBECDBF2983B5
:1014F0003A834B835C836D837E838F8398876B8174
:101500007C81AD81BE8180E090E07B0123E0E20E32
:10151000F11C6D0123E0C20ED11C25E1B22E20E0AA
:1015200030E0B89E8001B99E100D1124AC01461B1D
:10153000570B440F551F440F551F40555D4F8617DD
:101540009707ECF0E816F906D4F02A173B07BCF031
:10155000C216D306A4F0F801E20FF31FEE0FFF1F2F
:10156000E252FD4F0190F081E02DEF2B41F0F901A7
:10157000EA1BFB0BE40FF51FE081E1110CC02F5FAC
:101580003F4F25313105D9F601968A30910539F65C
:1015900081E090E002C080E090E028960FB6F894D9
:1015A000DEBF0FBECDBFDF91CF911F910F91FF9096
:1015B000EF90DF90CF90BF9008959F92AF92BF922F
:1015C000CF92DF92EF92FF920F931F93CF93DF930F
:1015D000CDB7DEB728970FB6F894DEBF0FBECDBFEC
:1015E00029833A834B835C836D837E838F839887C3
:1015F0006B817C81AD81BE8109811A8180E090E0A0
:101600007B0123E0E20EF11C6D0123E0C20ED11C30
:1016100025E1922E20E030E0AC01461B570B440F31
:10162000551F440F551F40555D4F989E5001999E80
:10163000B00C112486179707D4F0E816F906BCF011
:101640002A173B07A4F0C216D3068CF0F901EA1B57
:10165000FB0BE40FF51FE081EE2349F0F501E20FEB
:10166000F31FEE0FFF1FE252FD4F118300832F5F28
:101670003F4F25313105F1F601968A30910551F63B
:1016800028960FB6F894DEBF0FBECDBFDF91CF9185
:101690001F910F91FF90EF90DF90CF90BF90AF9090
:1016A0009F900C94C309109201011092000180E0F8
:1016B00090E021E030E0FC01EE0FFF1FE657FB4F0A
:1016C00031832083019687309105A9F708950E9400
:1016D000BA1167E070E00E9418100895EF92FF922F
:1016E0000F931F93CF93DF93CDB7DEB760970FB6FD
:1016F000F894DEBF0FBECDBF1092A1021092A002DF
:101700008091000190910101079711F40E94530B01
:101710000E94670BFC01EE0FFF1FE657FB4F208175
:101720003181232BA9F31182108220910001309185
:1017300001012F5F3F4F309301012093000123E00F
:10174000880F991F2A95E1F78E5F9E4F28E0FC01D4
:10175000DE01199601900D922A95E1F7FC010081B6
:10176000E1801681F780612F7F2D802F9E2D0E94B2
:101770006D020E94BF03202F0987EA861F87F88A1F
:101780003E2D4B855C856D857E85812F9F2D0E942A
:10179000660A009711F188E0FE013996DE01119684
:1017A00001900D928A95E1F70983EA821F83F886FA
:1017B00088E0FE013196A8E9B4E001900D928A9587
:1017C000E1F788E0FE013196A2E8B4E001900D92C5
:1017D0008A95E1F781E090E005C0109245011092F2
:1017E0004401F89460960FB6F894DEBF0FBECDBFEB
:1017F000DF91CF911F910F91FF90EF900895CF92BD
:10180000DF92EF92FF920F931F93CF93DF93CDB7A9
:10181000DEB728970FB6F894DEBF0FBECDBF88E0C5
:10182000E8E9F4E0DE01119601900D928A95E1F766
:1018300029813A81CB80DC80ED80FE800F81188584
:1018400098E0E8E9F4E0A2E8B4E001900D929A95FE
:10185000E1F70330110519F00F5F1F4F02C000E0E0
:1018600010E0B801C9010E946D020E94E9018E0DCD
:101870009F1D46971CF080E090E027C00E94AF01BA
:101880008C0D9D1D97FDF7CF0E94CE018C0D9D1DE7
:101890000A978CF718870F8329813A814B815C81E5
:1018A0006D817E81802F98850E94660A892B19F3AD
:1018B00088E0FE013196A8E9B4E001900D928A9586
:1018C000E1F70E94510881E090E028960FB6F89465
:1018D000DEBF0FBECDBFDF91CF911F910F91FF9063
:1018E000EF90DF90CF900895AF92BF92CF92DF92AA
:1018F000EF92FF920F931F93CF93DF93CDB7DEB795
:1019000028970FB6F894DEBF0FBECDBF6C0188E0FC
:10191000E8E9F4E0DE01119601900D928A95E1F775
:10192000EB80FC800D811E8188E0E8E9F4E0A2E80C
:10193000B4E001900D928A95E1F781E0C816D104D8
:1019400069F048F082E0C816D104E1F083E0C816DF
:10195000D10449F139C0C801019737C0A0909C0457
:10196000B0909D0480EB92E00E9495018A0D9B1D32
:1019700044971CF4C801019628C0D092A102C092DD
:10198000A00222C0A0909A04B0909B0480EB92E049
:101990000E945B018A0D9B1D18161906ACF4970175
:1019A000215031090FC0A0909A04B0909B0480EBA5
:1019B00092E00E947A018A0D9B1D09972CF49701F1
:1019C0002F5F3F4FC80102C0C8019701422F3C83DF
:1019D0002B83682F9E838D8329813A815C817E8150
:1019E0008F8198850E94660A892B51F088E0FE015C
:1019F0003196A8E9B4E001900D928A95E1F708C00C
:101A000081E0C816D10421F4D092A102C092A002B4
:101A100028960FB6F894DEBF0FBECDBFDF91CF91F1
:101A20001F910F91FF90EF90DF90CF90BF90AF90FC
:101A30000C9451081092A1021092A00281E090E053
:101A40009093450180934401909343018093420118
:101A500010929F0210929E0210929D0210929C0280
:101A600010929B0210929A0287E090E090930101FD
:101A7000809300010E94530B0E94E5080C94B90862
:101A80001F920F920FB60F9211240BB60F922F9345
:101A90003F934F935F936F937F938F939F93AF93F6
:101AA000BF93EF93FF930E94320E892B11F00E9497
:101AB000FF0B0E945E0E892B11F00E94FF0B0E940B
:101AC0008A0E892B21F082E090E00E94740C0E9423
:101AD000B60E892B21F083E090E00E94740C0E94E6
:101AE000E20E0E940E0F0E943A0F892B51F0809156
:101AF000A0029091A102892B21F481E090E00E9444
:101B0000740CFF91EF91BF91AF919F918F917F9155
:101B10006F915F914F913F912F910F900BBE0F905E
:101B20000FBE0F901F9018951F920F920FB60F9235
:101B300011240BB60F920F931F932F933F934F9344
:101B40005F936F937F938F939F93AF93BF93EF9325
:101B5000FF93CF93DF93CDB7DEB72897DEBFCDBF1E
:101B60008091A0029091A102892B39F481E090E04C
:101B70000E94740C0E9451083CC088E0E8E9F4E03F
:101B8000DE01119601900D928A95E1F70D811E817B
:101B90000F5F1F4F80EB92E00E949501800F911F15
:101BA0004597A9F4209198043091990440919A04A2
:101BB00050919B0460919C0470919D0480919E04BF
:101BC00090919F040E94DD0A0E946E0B12C0602F4C
:101BD0001E830D8329813A814B815C817E818F81B7
:101BE00098850E94660A892BE9F281E090E00E94C4
:101BF000740C28960FB6F894DEBF0FBECDBFDF91F0
:101C0000CF91FF91EF91BF91AF919F918F917F9174
:101C10006F915F914F913F912F911F910F910F9075
:101C20000BBE0F900FBE0F901F9018958DB18F7C3B
:101C30008DB98EB180638EB96F98779A87B1837CA6
:101C400087B988B18C6388B96F98779A87B1837C9C
:101C500087B988B18C6388B9EAE6F0E0808185684D
:101C600080830895649917C08091AE029091AF026D
:101C7000892B89F48091A2029091A302892B59F4B7
:101C800081E090E09093AF028093AE029093A30224
:101C90008093A2020895649B0EC08091AE02909141
:101CA000AF02009751F01092AF021092AE02109264
:101CB000A3021092A20280E090E00895679917C0F5
:101CC0008091AC029091AD02892B89F48091A2029F
:101CD0009091A302892B59F481E090E09093AD029A
:101CE0008093AC029093A3028093A2020895679B15
:101CF0000EC08091AC029091AD02009751F010920D
:101D0000AD021092AC021092A3021092A20280E0E7
:101D100090E00895329917C08091AA029091AB0289
:101D2000892B89F48091A2029091A302892B59F406
:101D300081E090E09093AB028093AA029093A3027B
:101D40008093A2020895329B0EC08091AA029091C6
:101D5000AB02009751F01092AB021092AA021092BF
:101D6000A3021092A20280E090E00895349917C077
:101D70008091A8029091A902892B89F48091A202F6
:101D80009091A302892B59F481E090E09093A902ED
:101D90008093A8029093A3028093A2020895349B9B
:101DA0000EC08091A8029091A902009751F0109264
:101DB000A9021092A8021092A3021092A20280E03F
:101DC00090E00895339917C08091A6029091A702E0
:101DD000892B89F48091A2029091A302892B59F456
:101DE00081E090E09093A7028093A6029093A302D3
:101DF0008093A2020895339B0EC08091A602909119
:101E0000A702009751F01092A7021092A60210921A
:101E1000A3021092A20280E090E00895359917C0C5
:101E20008091A4029091A502892B89F48091A2024D
:101E30009091A302892B59F481E090E09093A50240
:101E40008093A4029093A3028093A2020895359BED
:101E50000EC08091A4029091A502009751F01092BB
:101E6000A5021092A4021092A3021092A20280E096
:101E700090E00895359906C08091A2029091A30246
:101E8000892B39F01092A3021092A20280E090E018
:101E9000089581E090E00895CF93DF93CDB7DEB74A
:101EA00028970FB6F894DEBF0FBECDBF80E88093B1
:101EB0006100109261000E9487060E94160E8DE359
:101EC0000E94190580E090E00E94A504279A2F98AF
:101ED0001092800098E09093810080918100816051
:101EE0008093810080916F00826080936F001092D8
:101EF0009900109298008091B10081608093B100A8
:101F00001092900090939100809191008460809352
:101F100091008091710082608093710080E29EE464
:101F2000909399008093980040E050E060E070E06A
:101F300088E092E00E940E0884E791E00E94FB078F
:101F40008AE991E00E94FB0781EC91E00E94FB0787
:101F500085EE91E00E94FB078AE092E00E94FB0779
:101F600080E392E00E94FB0787E592E00E94FB0776
:101F70002F9A87EFC82E8DEBD82EEE24EA94FE2CF4
:101F80000E945E0E892BE1F30E941A0D1A821982BB
:101F90008091D0029091D102482F8B839C831E8226
:101FA0001D828091D2029091D3028F839887D09224
:101FB000DD02C092DC021092DB021092DA0207EF1F
:101FC0001DEB20E03A815C8160E07E810E944F053C
:101FD0000E9402098091B20090E00E94BE110E940E
:101FE0006E0BF0928900E09288002F98789480918F
:101FF000440190914501892BD1F7F8942F9A4AE03A
:1020000050E060EA70E088E792E00E940E081092CB
:10201000DD021092DC02F092DB02E092DA024AE08A
:1020200050E060E070E082E892E00E940E08A8CFE5
:1020300097FB072E16F4009407D077FD09D00E9475
:102040002C1007FC05D03EF4909581959F4F089584
:10205000709561957F4F0895AA1BBB1B51E107C086
:10206000AA1FBB1FA617B70710F0A61BB70B881F28
:10207000991F5A95A9F780959095BC01CD010895B7
:102080000E9454100C9435110E942E1158F00E9499
:10209000271140F029F45F3F29F00C941E115111D3
:1020A0000C9469110C9424110E94461168F3992331
:1020B000B1F3552391F3951B550BBB27AA27621744
:1020C0007307840738F09F5F5F4F220F331F441F51
:1020D000AA1FA9F335D00E2E3AF0E0E832D0915085
:1020E0005040E695001CCAF72BD0FE2F29D0660F72
:1020F000771F881FBB1F261737074807AB07B0E8B5
:1021000009F0BB0B802DBF01FF2793585F4F3AF0BA
:102110009E3F510578F00C941E110C9469115F3F9D
:10212000E4F3983ED4F3869577956795B795F79540
:102130009F5FC9F7880F911D9695879597F9089528
:10214000E1E0660F771F881FBB1F621773078407C4
:10215000BA0720F0621B730B840BBA0BEE1F88F7D3
:10216000E09508950E944E1188F09F5798F0B92F7E
:102170009927B751B0F0E1F0660F771F881F991FBC
:102180001AF0BA95C9F714C0B13091F00E946811E5
:10219000B1E008950C946811672F782F8827B85FF5
:1021A00039F0B93FCCF3869577956795B395D9F714
:1021B0003EF490958095709561957F4F8F4F9F4F1E
:1021C0000895E89409C097FB3EF49095809570952A
:1021D00061957F4F8F4F9F4F9923A9F0F92F96E973
:1021E000BB279395F695879577956795B795F111E8
:1021F000F8CFFAF4BB0F11F460FF1BC06F5F7F4F85
:102200008F4F9F4F16C0882311F096E911C0772396
:1022100021F09EE8872F762F05C0662371F096E89F
:10222000862F70E060E02AF09A95660F771F881F6E
:10223000DAF7880F9695879597F9089597F99F672C
:1022400080E870E060E008959FEF80EC089500243E
:102250000A941616170618060906089500240A940B
:1022600012161306140605060895092E0394000C91
:1022700011F4882352F0BB0F40F4BF2B11F460FF20
:1022800004C06F5F7F4F8F4F9F4F089557FD905849
:10229000440F551F59F05F3F71F04795880F97FB2A
:1022A000991F61F09F3F79F08795089512161306E4
:1022B0001406551FF2CF4695F1DF08C01616170613
:1022C0001806991FF1CF8695710561050894089548
:1022D000E894BB2766277727CB0197F908958F925B
:1022E0009F92AF92BF92CF92DF92EF92FF92CF93E5
:1022F000DF93EC01688179818A819B816115710589
:102300008105910521F464E279ED8BE597E02DE1FB
:1023100033EF41E050E00E94B21449015A019B01A1
:10232000AC01A7EAB1E40E94D1146B017C01ACEED0
:10233000B4EFA50194010E94DF14DC01CB018C0DE8
:102340009D1DAE1DBF1DB7FF03C00197A109B04879
:1023500088839983AA83BB839F77DF91CF91FF9076
:10236000EF90DF90CF90BF90AF909F908F900895A7
:102370000C946F1186E491E00C946F11A0E0B0E032
:102380008093460190934701A0934801B09349017F
:1023900008950F931F93CF93DF93CDB7DEB72E979A
:1023A0000FB6F894DEBF0FBECDBF0D891E8986E043
:1023B0008C831A8309838FEF9FE79E838D83AE0101
:1023C000475E5F4F6F89788DCE0101960E94F811AC
:1023D000EF81F885E00FF11F10822E960FB6F8946A
:1023E000DEBF0FBECDBFDF91CF911F910F9108953A
:1023F0002F923F924F925F926F927F928F929F9215
:10240000AF92BF92CF92DF92EF92FF920F931F9302
:10241000CF93DF93CDB7DEB72B970FB6F894DEBF1F
:102420000FBECDBF6C017B018A01FC0117821682B1
:10243000838181FFCCC1CE0101963C01F6019381DD
:10244000F70193FD859193FF81917F01882309F422
:10245000BAC1853239F493FD859193FF81917F0153
:10246000853229F4B60190E00E941814E7CF912C30
:10247000212C312CFFE1F315D8F08B3279F038F4B0
:10248000803279F08332A1F4232D20611DC08D327A
:1024900061F0803369F4232D216016C0832D8260A2
:1024A000382EE32DE4603E2E2AC0F32DF8601DC0C7
:1024B00037FC2DC020ED280F2A3040F08E32B9F4C1
:1024C00036FC81C1232D2064322E19C036FE06C091
:1024D0008AE0989E200D1124922E11C0EAE02E9ED3
:1024E000200D1124222EF32DF0623F2E08C08C36D1
:1024F00021F4832D8068382E02C0883641F4F7011C
:1025000093FD859193FF81917F018111B3CF982F26
:102510009F7D9554933028F40C5F1F4F9FE3998360
:102520000DC0833631F0833771F0833509F059C01F
:1025300021C0F801808189830E5F1F4F8824839416
:10254000912C530113C02801F2E04F0E511CF801E9
:10255000A080B18036FE03C0692D70E002C06FEF2D
:102560007FEFC5010E940D144C018201F32DFF770E
:102570003F2E16C0280122E0420E511CF801A08017
:10258000B18036FE03C0692D70E002C06FEF7FEFAF
:10259000C5010E9402144C01F32DF0683F2E820108
:1025A00033FC1BC0822D90E088169906B0F4B6016A
:1025B00080E290E00E9418142A94F4CFF50137FCD1
:1025C000859137FE81915F01B60190E00E94181459
:1025D00021102A9421E0821A91088114910471F744
:1025E000E8C0843611F0893641F5F80137FE07C09E
:1025F00060817181828193810C5F1F4F08C060816F
:102600007181072E000C880B990B0E5F1F4FF32D65
:10261000FF763F2E97FF09C0909580957095619544
:102620007F4F8F4F9F4FF0683F2E2AE030E0A3018D
:102630000E945414882E861845C0853731F4232D06
:102640002F7EB22E2AE030E025C0932D997FB92E3F
:102650008F36C1F018F4883579F0B5C0803719F09D
:10266000883721F0B0C0E92FE061BE2EB4FE0DC066
:10267000FB2DF460BF2E09C034FE0AC0292F26604E
:10268000B22E06C028E030E005C020E130E002C0F4
:1026900020E132E0F801B7FE07C0608171818281DC
:1026A00093810C5F1F4F06C06081718180E090E0D4
:1026B0000E5F1F4FA3010E945414882E8618FB2D15
:1026C000FF773F2E36FE0DC0232D2E7FA22E8914BC
:1026D00058F434FE0BC032FC09C0832D8E7EA82E28
:1026E00005C0B82CA32C03C0B82C01C0B92CA4FE83
:1026F0000FC0FE01E80DF11D8081803321F49A2D79
:10270000997EA92E09C0A2FE06C0B394B39404C05A
:102710008A2D867809F0B394A3FC11C0A0FE06C0F0
:10272000B21488F4280C922C9B180EC0B21460F4DA
:10273000B60180E290E00E941814B394F7CFB2146F
:1027400018F42B1802C0982C212CA4FE10C0B6013E
:1027500080E390E00E941814A2FE17C0A1FC03C001
:1027600088E790E002C088E590E0B6010CC08A2DB1
:10277000867859F0A1FE02C08BE201C080E2A7FC7E
:102780008DE2B60190E00E941814891438F4B60165
:1027900080E390E00E9418149A94F7CF8A94F30192
:1027A000E80DF11D8081B60190E00E94181481109F
:1027B000F5CF222009F442CEB60180E290E00E94DB
:1027C00018142A94F6CFF6018681978102C08FEF04
:1027D0009FEF2B960FB6F894DEBF0FBECDBFDF91F3
:1027E000CF911F910F91FF90EF90DF90CF90BF900E
:1027F000AF909F908F907F906F905F904F903F90A1
:102800002F900895FC010590615070400110D8F799
:10281000809590958E0F9F1F0895FC016150704028
:1028200001900110D8F7809590958E0F9F1F089505
:102830000F931F93CF93DF93FB01238121FD03C0EF
:102840008FEF9FEF2CC022FF16C046815781248155
:1028500035814217530744F4A081B1819D012F5F58
:102860003F4F318320838C93268137812F5F3F4FE9
:102870003783268314C08B01EC01FB010084F185B2
:10288000E02D0995892BE1F6D80116968D919C9142
:102890001797019617969C938E931697CE01DF910A
:1028A000CF911F910F910895FA01AA27283051F175
:1028B000203181F1E8946F936E7F6E5F7F4F8F4F71
:1028C0009F4FAF4FB1E03ED0B4E03CD0670F781FD0
:1028D000891F9A1FA11D680F791F8A1F911DA11DB5
:1028E0006A0F711D811D911DA11D20D009F46894EE
:1028F0003F912AE0269F11243019305D3193DEF696
:10290000CF010895462F4770405D4193B3E00FD04B
:10291000C9F7F6CF462F4F70405D4A3318F0495D36
:1029200031FD4052419302D0A9F7EACFB4E0A69519
:102930009795879577956795BA95C9F7009761053B
:10294000710508959B01AC010A2E06945795479591
:1029500037952795BA95C9F7620F731F841F951F86
:10296000A01D0895052E97FB1EF400940E94C91423
:1029700057FD07D00E94E41407FC03D04EF40C94DA
:10298000C91450954095309521953F4F4F4F5F4F5B
:10299000089590958095709561957F4F8F4F9F4FCB
:1029A00008950E940615A59F900DB49F900DA49FB9
:1029B000800D911D11240895B7FF0C94D1140E942D
:1029C000D114821B930B0895A1E21A2EAA1BBB1BE4
:1029D000FD010DC0AA1FBB1FEE1FFF1FA217B307EB
:1029E000E407F50720F0A21BB30BE40BF50B661F01
:1029F000771F881F991F1A9469F7609570958095C5
:102A000090959B01AC01BD01CF010895A29FB0013B
:102A1000B39FC001A39F700D811D1124911DB29F12
:0E2A2000700D811D1124911D0895F894FFCFB3
:102A2E000700E0FF040000000000FF0703000000A5
:102A3E0000009F990300000000001F00030000002B
:102A4E00000020FD030000000000E007030000006E
:102A5E00000000F8030000000000280064002C01B4
:102A6E00B00401000100010000000000960000000B
:102A7E003B0158004F004C696E65733A2025640087
:102A8E004C6576656C3A2025640053636F72653A27
:102A9E00202564002020205F5F5F5F5F205F5F5F07
:102AAE005F205F5F5F5F5F205F5F5F5F5F205F5FE5
:102ABE005F5F5F205F5F5F5F0A0020207C5F2020EA
:102ACE00205F7C20205F5F7C5F2020205F7C2020A9
:102ADE005F20207C5F2020205F7C205F5F5F7C0A70
:102AEE0000202020207C207C207C207C5F5F20200A
:102AFE007C207C207C207C5F7C207C207C207C20A9
:102B0E005C205C0A00202020207C207C207C202061
:102B1E005F5F7C207C207C207C202C20205F7C2012
:102B2E007C207C20205C205C0A00202020207C2041
:102B3E007C207C207C5F5F20207C207C207C207C85
:102B4E005C205C205F7C207C5F205F5C205C0A0048
:102B5E00202020207C5F7C207C5F5F5F5F7C207C60
:102B6E005F7C207C5F7C205C5F5C5F5F5F5F5F7C77
:102B7E005F5F5F5F7C0A000A20202020202020203B
:102B8E00202050726573732043656E7465722074D5
:102B9E006F2053746172740047616D65204F7665C6
:102BAE00720050726573732043656E746572207483
:0A2BBE006F20526573746172740099
:00000001FF
